:100000000C9446000C9465000C9465000C946500FB
:100010000C9465000C9465000C9465000C946500CC
:100020000C9465000C9465000C9465000C946500BC
:100030000C9465000C94DE000C9465000C94650033
:100040000C9465000C9465000C9465000C9465009C
:100050000C9465000C9465000C9465000C9465008C
:100060000C9465000C9465000C9465000C9465007C
:100070000C9465000C9465000C9465000C9465006C
:100080000C9465000C9465000C94650011241FBE4F
:10009000CFEFD0E4DEBFCDBF11E0A0E0B1E0EEE0F5
:1000A000F8E000E00BBF02C007900D92A431B10749
:1000B000D9F721E0A4E1B1E001C01D92A532B20759
:1000C000E1F70E946B030C9405040C940000CF939D
:1000D000DF9300D01F92CDB7DEB789837B836A831D
:1000E00089818A3031F48A819B81BC018DE00E9434
:1000F000670080EC90E0FC018081882F90E08072A6
:100100009927892BB1F386EC90E02981FC012083AB
:1001100080E090E00F900F900F90DF91CF910895C5
:10012000CF93DF93CDB7DEB781E890E02BE0FC0101
:10013000208388E890E02DE730E0FC0131832083C4
:100140008FE690E022E0FC01208384E890E0FC014F
:100150001182108280910E0190910F01A0911001E7
:10016000B09111018093150190931601A09317018E
:10017000B09318018FE590E02FE530E0F901208180
:100180002068FC0120830000DF91CF910895CF9378
:10019000DF93CDB7DEB781E890E0FC01108200006C
:1001A000DF91CF910895CF93DF93CDB7DEB781E094
:1001B000809314010000DF91CF9108951F920F9258
:1001C00000905F000F92112400905B000F922F931C
:1001D0003F934F935F936F937F938F939F93AF93CF
:1001E000BF93EF93FF93CF93DF93CDB7DEB78091AB
:1001F000150190911601A0911701B0911801019776
:10020000A109B1098093150190931601A0931701DC
:10021000B09318018091150190911601A0911701DA
:10022000B0911801892B8A2B8B2B91F40E94D3005B
:1002300080910E0190910F01A0911001B0911101D8
:100240008093150190931601A0931701B0931801A4
:100250000000DF91CF91FF91EF91BF91AF919F91FE
:100260008F917F916F915F914F913F912F910F905F
:1002700000925B000F9000925F000F901F90189506
:10028000CF93DF9300D000D0CDB7DEB769837A83F8
:100290008B839C8389819A81AB81BC8180930E0181
:1002A00090930F01A0931001B093110180910E0162
:1002B00090910F01A0911001B0911101809315014F
:1002C00090931601A0931701B093180100000F90AE
:1002D0000F900F900F90DF91CF910895CF93DF9300
:1002E000CDB7DEB780912101909122018130910537
:1002F00081F08130910530F08230910589F00397CB
:10030000B1F01CC081E090E0909322018093210124
:100310001AC082E090E0909322018093210113C0E3
:1003200083E090E090932201809321010CC081E052
:1003300090E0909322018093210105C01092220148
:1003400010922101000080912101909122018130C1
:10035000910549F08130910590F08230910539F096
:10036000039749F00DC081E08093190109C082E034
:100370008093190105C084E08093190101C0000039
:100380000000DF91CF910895CF93DF93CDB7DEB713
:1003900080911F01909120018130910569F0813099
:1003A000910518F0029779F015C081E090E09093E4
:1003B000200180931F0113C082E090E09093200100
:1003C00080931F010CC081E090E090932001809306
:1003D0001F0105C01092200110921F0100008091A2
:1003E0001F01909120018130910531F081309105FC
:1003F00050F0029729F008C088E080931A0104C0E9
:1004000010921A0101C000000000DF91CF91089501
:10041000CF93DF931F92CDB7DEB7198280E290E0D1
:10042000FC01808180958983809123019091240132
:100430008130910581F08130910530F08230910555
:10044000C9F00397D1F15CC081E090E09093240162
:10045000809323015BC08981882F90E08470992765
:10046000892B09F452C082E090E09093240180939C
:1004700023014BC08981882F90E084709927892BB4
:1004800039F481E090E090932401809323013EC0F1
:1004900090911C0180911201981749F483E090E03B
:1004A000909324018093230110921C012FC080910E
:1004B0001C018F5F80931C0129C08981882F90E0E7
:1004C00084709927892B39F481E090E0909324017E
:1004D000809323011BC090911C01809112019817F9
:1004E00049F482E090E090932401809323011092DC
:1004F0001C010CC080911C018F5F80931C0106C001
:10050000109224011092230101C000008091230168
:10051000909124018130910549F08130910580F05E
:100520008230910531F0039741F00BC010921B010E
:1005300008C080E180931B0104C010921B0101C020
:10054000000000000F90DF91CF910895CF93DF93CB
:100550001F92CDB7DEB7198280E290E0FC01808166
:100560008095898380911D0190911E0182309105B3
:10057000A9F18330910528F4009771F0019799F063
:100580005CC08430910509F43EC08430910568F167
:10059000059709F43FC051C081E090E090931E019F
:1005A00080931D014AC08981882F90E0817099272E
:1005B000892B31F082E090E090931E0180931D0121
:1005C0008981882F90E082709927892B89F184E0B6
:1005D00090E090931E0180931D012AC083E090E07B
:1005E00090931E0180931D0128C08981882F90E07F
:1005F00081709927892BF1F481E090E090931E019E
:1006000080931D0117C085E090E090931E018093B8
:100610001D0113C08981882F90E082709927892B52
:1006200059F481E090E090931E0180931D0104C075
:10063000000003C0000001C0000080911D019091E6
:100640001E018230910589F08330910528F40097CE
:10065000C1F00197C1F01CC08430910561F0843075
:10066000910598F0059799F013C08091120181507F
:10067000809312010DC0809112018F5F809312014F
:1006800007C0000005C0000003C0000001C000005A
:1006900000000F90DF91CF910895CF93DF931F92C9
:1006A000CDB7DEB7198285E290E0FC0180818983B5
:1006B0009091190180911A01982B80911B01892B2F
:1006C000898385E290E02981FC01208300000F905E
:1006D000DF91CF910895CF93DF93CDB7DEB72C97FD
:1006E0000FB6F894DEBF0FBECDBF8CE291E0A0E064
:1006F000B0E089839A83AB83BC8388EE93E0A0E06B
:10070000B0E08D839E83AF83B88781E090E0A0E066
:10071000B0E089879A87AB87BC8781E290E0FC01D3
:10072000108282E290E02FEFFC01208384E290E0CF
:100730002FEFFC01208385E290E0FC011082898587
:100740009A85AB85BC85BC01CD010E9440010E9409
:10075000900010922201109221011092200110921B
:100760001F01109224011092230110921E01109279
:100770001D0189819A81AB81BC818C329140A10598
:10078000B10530F00E946E0119821A821B821C8210
:100790008D819E81AF81B885883E9340A105B105CA
:1007A00030F00E94C4011D821E821F8218860E94A2
:1007B00008020E94A6020E944D03000080911401CD
:1007C0008823E1F31092140129813A814B815C81E5
:1007D00089859A85AB85BC85820F931FA41FB51FA1
:1007E00089839A83AB83BC832D813E814F81588559
:1007F00089859A85AB85BC85820F931FA41FB51F81
:0E0800008D839E83AF83B887B4CFF894FFCF6B
:10080E000000000200000000670000000000010070
:04081E0000000200D4
:00000001FF
